:020000022000DC
:10600000207D002009710300754B0400F57003002A
:10601000F5700300F5700300F57003000000000048
:10602000000000000000000000000000B572030046
:10603000F57003000000000081720300F57003009A
:106040003D740300D96D04003D7403003D740300EA
:106050003D7403003D7403003D7403003D74030070
:106060008F6D04003D7403003D740300C36D040094
:106070003D7403003D7403003D7403003D74030050
:106080003D7403003D7403003D7403003D74030040
:106090003D7403003D7403003D7403003D74030030
:1060A0003D7403003D7403003D7403003D74030020
:1060B0003D7403003D7403003D7403003D74030010
:1060C0003D7403003D7403003D7403003D74030000
:1060D0003D7403003D7403003D7403003D740300F0
:1060E0003D7403003D7403003D7403003D740300E0
:1060F0003D7403003D7403003D7403003D740300D0
:1061000053B94AB9002908BF00281CBF4FF0FF311E
:106110004FF0FF3000F00CB8ADF1080C6DE904CE83
:106120000BF0E2FCDDF804E0DDE9022304B0704787
:10613000704700BF2DE9F00791E8F807B2E80210B8
:106140005B1854EB0C04B2E802104D4156EB0C0600
:10615000B2E802104F4158EB0C08B2E8021059EBBC
:1061600001095AEB0C0A80E8F80780410130BDE8CC
:10617000F00770472DE9F00791E8F807B2E8021040
:106180005B1A74EB0C04B2E802108D4176EB0C063E
:10619000B2E802108F4178EB0C08B2E8021079EBFC
:1061A00001097AEB0C0A80E8F80780414042BDE81B
:1061B000F00770472DE9F007524290E87800B1E807
:1061C00080071740DB1918EA020854EB080419EAA3
:1061D000020955EB09051AEA020A56EB0A0678C0CD
:1061E00090E87800B1E8800717407B4118EA020880
:1061F00054EB080419EA020955EB09051AEA020AE8
:1062000056EB0A0678C080410130BDE8F0077047C0
:106210002DE9F007524290E87800B1E88007174076
:10622000DB1B18EA020874EB080419EA020975EB93
:1062300009051AEA020A76EB0A0678C090E87800A7
:10624000B1E880071740BB4118EA020874EB080464
:1062500019EA020975EB09051AEA020A76EB0A0641
:1062600078C080414042BDE8F00770472DE9F00159
:1062700052424FF0040890E8300091E8C000A31BA0
:106280001340E41AF618EB1B1340ED1AFF1830C048
:10629000C0C1B8F10108EED1BDE8F001704700BF00
:1062A00000B592E8DC072DE9DC07B1E8805702B4BD
:1062B000A7FB02510A95A8FB020BE7FB6310E9FB61
:1062C00062B00B91A8FB0351EAFB6201E7FB64B5E6
:1062D000E7FB6605E8FB6615CDF830B0A9FB03B611
:1062E000EAFB6316ECFB6356E8FB640BE9FB641BFB
:1062F000EAFB645BECFB646B0D90ACFB0230059C2D
:10630000EEFB6250E9FB6460EAFB64B0E7FB6431DA
:10631000E8FB6451069CE8FB6461E9FB64B1EAFBBD
:1063200064010E93A7FB0432079CE7FB6462E8FB61
:1063300064B2E9FB6402EAFB6412049CE9FB645367
:10634000EAFB6463089CE7FB64B3E8FB6403E9FBD6
:106350006413EAFB64230F955DF8049B99E800063B
:10636000DDF80080A9FB0854EAFB68B4DDF8108072
:10637000ECFB6804EEFB6814E9FB6824EAFB683474
:10638000DDF80480EEFB6865E9FB68B5EAFB6805AB
:10639000DDF81480ECFB6815EEFB6825E9FB683539
:1063A000EAFB68450F96DDF80880AEFB0876E9FB4E
:1063B0006806EAFB6816DDF81880ECFB6826EEFB41
:1063C0006836E9FB6846EAFB6856DDF80C80ECFBB2
:1063D00068B7EEFB6807E9FB6817EAFB6827DDF89A
:1063E0001C80ECFB6837EEFB6847E9FB6857EAFB6B
:1063F000686708B000BD00BF2DE9F14F87B0FFF717
:106400004FFFDDF81C8008F1200888E8FF00FFBC82
:1064100087E87F08BDE8F08F00B591E89857A3FBA7
:1064200003520195A3FB0401E3FB6420E3FB671027
:106430000292A3FB0752E3FB6802E4FB6415E3FB53
:106440006805E3FB69250391A4FB07B6E3FB692616
:10645000E3FB6A56E4FB670BE4FB682BE3FB6A5B38
:10646000E3FB6C6B0490A4FB0810E4FB6950E3FBB6
:106470006C60E3FB6EB0E7FB6721E4FB6951E4FB72
:106480006A61E3FB6EB1E4FB6E010592A7FB083283
:10649000E4FB6A62E4FB6CB2E4FB6E02E7FB6E12A3
:1064A000E7FB6853E7FB6963E4FB6CB3E7FB6C0352
:1064B000E7FB6E13E8FB6E230695A7FB0954E7FB89
:1064C0006AB4E7FB6C04E8FB6C14E8FB6E24E9FBA0
:1064D0006E34E8FB6865E7FB6AB5E8FB6A05E8FB34
:1064E0006C15E9FB6C25E9FB6E35EAFB6E450796FA
:1064F000A8FB0976E8FB6A06E9FB6A16E9FB6C264D
:10650000EAFB6C36EAFB6E46ECFB6E56E8FB69B7BD
:10651000E9FB6907E9FB6A17EAFB6A27EAFB6C37C4
:10652000ECFB6C47ECFB6E57EEFB6E6700BD00BFEB
:106530002DE9F14F87B0FFF76FFFDDF81C8008F100
:10654000200888E8FF00FFBC87E87F08BDE8F08FDF
:1065500030B44FF0000310F8014B11F8015B013A21
:1065600084EA050443EA0403F5D1A3F101034FEAE9
:10657000D37030BC704700BF4FF0000310F8012B00
:10658000013943EA0203F9D1A3F101034FEAD370C1
:10659000704700BF30B411F8014B12F8015B6C403A
:1065A00000F8014B013BF6D130BC70472DE9F007F4
:1065B00091E8F807B2E802105B1854EB0C04B2E85B
:1065C00002104D4156EB0C06B2E802104F4158EB59
:1065D0000C08B2E8021059EB01095AEB0C0A894188
:1065E000B3F1FF3374F1FF3475F1FF3576F1000636
:1065F00077F1000778F1000879F101097AF1FF3AA3
:1066000051F100015B184C414D4156F1000657F124
:10661000000758F1000859EBD1795AEB010A80E8DC
:10662000F807BDE8F00770472DE9F00791E8F80793
:10663000B2E802105B1A74EB0C04B2E802108D4150
:1066400076EB0C06B2E802108F4178EB0C08B2E84A
:10665000021079EB01097AEB0C0A89415B184C4175
:106660004D4156F1000657F1000758F1000859EB6B
:10667000D1795AEB010A80E8F807BDE8F0077047C6
:1066800018EB040859EB05095AEB060A5BEB070BFC
:106690005FF0000C4CF1000C18EB050859EB0609F3
:1066A0005AEB070A5BEB070B50EB0C005FF0000C9A
:1066B00051EB0C0152EB0C0263414CF1000CB8EBB6
:1066C000070879F100097AF1000A7BEB040BA84175
:1066D000B141A241B3416CF1000CBBEB050BB041E1
:1066E000B941AA41BB416CF1000C4CF001068CF0A1
:1066F000020718EB060859EB6C095AEB6C0A7BEBA6
:106700006C0B70EB6C0471EB6C0572EB670653EB72
:106710006C076CEB6C0C18EB0C0059EB0C015AEB92
:106720000C025BF1000354F1000455F1000556EB37
:10673000DC7657EB0C0770472DE9F14F87B0FFF778
:10674000AFFDDDF81080DDF81490DDF818A0FFF73C
:1067500097FFBDE8000FFFF793FF03B05DF8048BD0
:1067600088E8FF00BDE8F08F2DE9F14F87B0FFF713
:1067700053FEDDF81080DDF81490DDF818A0FFF767
:106780007FFFBDE8000FFFF77BFF03B05DF8048BD0
:1067900088E8FF00BDE8F08F1FB500230193039345
:1067A0000B4B02930B4B1B7883B10378002B0CBF70
:1067B000012302238DF80B3001A9FF2301208DF85E
:1067C0000C3000F06DFB05B05DF804FB0123F1E730
:1067D00010010800F00A00201FB50A4B01934FF486
:1067E0002473ADF8083008238DF80A3001A9037826
:1067F0008DF80B3000208DF80C0000F051FB05B037
:106800005DF804FBCD4F0300F7B504460D4641B9D2
:10681000124B5B78012B04D0019101A80121FFF7F5
:10682000F3FF23680E4E0F4F0733002D23F00703AD
:1068300023600CBF2046002000F00EFB002556F818
:10684000043B0BB1384698470135032DF7D100F0D2
:1068500077FB23680344236003B0F0BDF00A0020F7
:1068600048000020F20A00202DE9F743314C019046
:10687000074601A80E46FFF7C7FFA578E3784FF05B
:1068800000091D44EDB2C8465FFA89F39D4246D81F
:106890000198033020F00300002E0190414618BFFC
:1068A000002000F08FFCDFF89080019DD8F80430C4
:1068B0000544019593B1E17A81B10735002E25F0A9
:1068C00007054FF025034FF028020CBF2846002093
:1068D000019502F0C5F9019B03440193A17B91B19D
:1068E000D8F804307BB1E37A6BB1019B073323F016
:1068F0000703002E0CBF18460020019305F034F862
:10690000019B03440193A36A23B1019B06B9A362CF
:10691000283301930198C01B03B0BDE8F083A37A2C
:10692000627A217AE0790BF0F9FF09F101098044DC
:10693000AAE700BFF00A0020480000208FB572B619
:10694000194BDD6AE5B9BFF34F8F1849184BCA6878
:1069500002F4E0621343CB60BFF34F8F00BFFDE74B
:10696000B4FBF6F4DAB20133002CF9D102F11003D2
:106970006B440A2603F80C4C32B901A8A847E2E799
:10698000044600230A26EDE7531E04AC54FA83F4B0
:10699000DAB2C3B2B3FBF6F706FB1733303304F8B1
:1069A0000C3CB0FBF6F0E7E7F00A002000ED00E059
:1069B0000400FA051FB5104B9A7A8DF809205A7A0F
:1069C0008DF8082002A81A7ADB79ADF80C20ADF812
:1069D0000A3003F01DFD18B1DB210320FFF7AEFFE5
:1069E000012301A88DF804300DF063F908B1DF210F
:1069F000F3E705B05DF804FBF00A002038B5044663
:106A000088B30AF0A9FC10B94FF0FF3038BD07F089
:106A100011FBB0F5FA7FF7D8154D1648EC6200F07F
:106A2000BDF9154B0024C3E900449C602622214691
:106A3000A81C6C702C70AC620AF0E4FF0123AB70F0
:106A40001B23EB7140F21B332B8140F202336B812D
:106A50000823AB73EFF3108572B600F027FC2DB955
:106A600062B62846D2E76FF01500CFE72046CDE7A3
:106A7000F00A0020B56902004800002010B5002887
:106A800039D1214C6378022B32D061B1002A35D044
:106A9000013906292FD8DFE801F0042E102E1E2E12
:106AA00026001378A37001210020FFF7DDFEB0F56A
:106AB000803F26DA0123637010BD9378F3B1D37859
:106AC000E3B113781A2B19D953781A2B16D91368F6
:106AD000C4F80730E7E713780C4A52680AB1012B73
:106AE0000CD9E372DFE71388FF2B07D8A373DAE72B
:106AF0004FF0FF30E0E76FF02C00DDE76FF015009E
:106B0000DAE76FF00B00D7E7F00A0020480000201A
:106B100070B50D460646E8B1E1B111F0070419D190
:106B200000F094F8C8B130460AF08AFD0C4E2146B8
:106B300086F830002846FFF797FE0EF0AFFA96F879
:106B40003000B16A03F006FDFFF734FF02237370D3
:106B5000204670BD6FF01500FBE74FF0FF30F8E7FF
:106B6000F00A002010B5074C6378022B05D103F022
:106B70000DFD94F830000AF07FFD0BF01FFF0020A0
:106B8000607010BDF00A002050B1074B03F11402F1
:106B900053F8041B40F8041B9342F9D100207047BE
:106BA0006FF01500704700BF9F8E040010B5074BB3
:106BB0005C7844B903F0B2FC054B064A5A60064AB9
:106BC0001A60204610BD4FF0FF30FBE7F00A0020AE
:106BD0004800002099670200D967020010B5054BF4
:106BE0005C781CB903F064FC204610BD4FF0FF3008
:106BF000FBE700BFF00A002010B5054B5C781CB91C
:106C00000DF060F8204610BD4FF0FF30FBE700BFED
:106C1000F00A002010B5054B5C781CB90DF055F852
:106C2000204610BD4FF0FF30FBE700BFF00A002008
:106C3000024B02681A600020704700BF240B00203E
:106C4000014B1B68184700BF240B0020024B18683B
:106C5000003818BF01207047240B00202DE9F041B7
:106C60001B4E031D04463360304604F0E9F9022848
:106C7000054606D1164920460BF0A5F82846BDE882
:106C8000F08104281CD1314620460BF001F9B0F503
:106C9000817F03D372210820FFF750FE0028E3D044
:106CA000277894F80280384600F028F80028DBD0D6
:106CB0003E2FE3D1404600F061F80028DED1D3E753
:106CC0000828DBD1024920460BF0ACF8D6E700BF1C
:106CD000280B0020074B4FF0FF3141F6FF72C3E94C
:106CE000001205490022C1E900221F21C3E9021256
:106CF000704700BF000000202C0C00203F280CD85B
:106D000001380B4BC0F3421200F01F0053F8223041
:106D100023FA00F000F001007047FF2806D0403849
:106D2000C0F34212034B00F01F00EFE70120704751
:106D3000000000202C0C00200146074B0068496829
:106D40001A4603C240F48C221A6041F0107242F4D9
:106D5000FF625A60704700BF000000200246024BED
:106D60000068516803C370472C0C00200246024B98
:106D70000068516803C37047080000200138064BC3
:106D8000C0F3421203EB820300F01F009B6823FA5A
:106D900000F000F00100704700000020014B186077
:106DA000704700BF340C002010B5FFF793FF0CF0C4
:106DB000BCFC034B1B68044603B19847204610BD3A
:106DC000340C00200B880288F0B5C3F30E049EB289
:106DD00004F11803C57CC35A05352A442B4497B2E5
:106DE00013FA82F3013B4288B3FBF7F313FB07432B
:106DF0009BB29A42044A93BF22EA060332401343ED
:106E00009BB20B80F0BD00BF0080FFFF10B5114B9F
:106E100000EB41041A786389B3FBF2F303FB02230E
:106E2000013A1A44B2F5706F027928BF00231A4460
:106E30008378B2FBF3F0194403FB1020091AB1FB6D
:106E4000F3F003FB101313446FEA43436FEA534319
:106E5000638110BD380C002010B5104BC8B15A78B2
:106E6000022A04D040F22B111720FFF767FD0322FE
:106E70005A70026812F0070102D04FF49871F3E7DC
:106E80005C685A6022440260C3E903119A60596148
:106E900010BD0122C3E901005A70F9E7380C002047
:106EA0002DE9F041254E96F801E00EF0FD0CBCF105
:106EB000010F04D040F245111720FFF73FFD91F874
:106EC0000680B8F1080F02D940F24711F4E7CF79F4
:106ED00097B34546022D726838BF02257B1D5C00C2
:106EE00002EB43036A1E13446D422B408D884544D8
:106EF000013DC8F100022A404FF6FE75AA4202D9B0
:106F00004FF4A971D8E7BEF1030F12D106EB800050
:106F10001C1BC56815B140F25711CDE7C460A770BE
:106F2000228084F803C0087A09682071080CE08088
:106F3000218107FB02337360BDE8F081380C00202B
:106F40002DE9F047364C6378012B65D0032B04D034
:106F500040F267111720FFF7F1FCD4E901329A42A1
:106F600002D04FF4B571F5E72546002305F80C3B38
:106F70001E460222994655F82200013A58B190F86F
:106F800004808178B8F1FF0F2FD180F804908E42F1
:106F90003CBFCEB20123511CEDD103B126700226B5
:106FA00040F6FF6955F826709FBB013EFAD20423D4
:106FB00063700020BDE8F08755F82CE0BEF1000FAB
:106FC00006D09EF804A0C24504BF9EF802E07744B4
:106FD0000CF1FF3CBCF1000FEEDA3944FF2907D970
:106FE00003B126704FF48371B4E794460027F1E7AC
:106FF0000771CCE707EB41033846A3F80A90FFF787
:1070000005FF08F10108BB785FFA88F18B42F1D8DF
:10701000CBE74FF00008F6E7022360686370C9E72A
:10702000380C0020F8B54FF6FF730380184B03EBC4
:1070300081030546D868B8B186780379B3FBF6F2C8
:1070400006FB1233DBB219460A1D00EB4202B2F90D
:1070500002705488002F09DB0131B1FBF6F206FB08
:107060001211C9B28B42EFD10020F8BDFF29FBD02D
:10707000C4F30E03C4782B8024B94FF4D9711720C0
:10708000FFF75CFC5380BDE8F8400BF026BC00BF66
:10709000380C00201D4B03EB810370B5DC680546FE
:1070A00044B3030404D54FF4E0711720FFF746FC06
:1070B000014620460BF0F3FBFF28014604D0204692
:1070C000BDE870400BF009BCA078B5FBF0F300FB05
:1070D0001353DBB219460A1D04EB4206B6F90260EF
:1070E000002E09DB0131B1FBF0F200FB1211C9B235
:1070F0008B42F0D1002070BDFF29FBD08B4204EB06
:1071000042021CBF0023E3705580D8E7380C0020F2
:10711000094B03EB810310B5DC68014620460BF0F8
:10712000BEFBFF28014604D02046BDE810400BF00E
:10713000D4BB002010BD00BF380C0020F8B5104BA8
:1071400003EB81030746DC68014620460BF0A7FBF2
:10715000FF28054611D0E688238953EA064606D063
:10716000014620460BF0B9FB01463846B0472046A1
:107170002946FFF74BFE0020F8BD0320FCE700BFC7
:10718000380C002038B50E4B827903EB820304469D
:10719000D86808B9022038BD8278E1799142F9D2E5
:1071A0004B1CE37100EB41035D89B3F90A30002BFE
:1071B000F3DBA5800BF091FB20600020EBE700BF24
:1071C000380C002070B5044610F003000E4603D0C2
:1071D00049211820FFF7B2FB0BF005FB054624B14F
:1071E0000348314604600BF0FEFA284670BD00BF2C
:1071F000500C00202DE9F04F1E4C85B092462268BD
:10720000BDF83CB098468146BDF838300D461AB9F5
:107210005B211820FFF792FB1A460A215046039380
:107220000BF08CF95A460646092140460BF086F9C8
:107230003118074620680BF001FB039BC9F80000DA
:1072400018B9286005B0BDE8F08F84192C60D9F812
:1072500000000093524631460A230BF021F92868BA
:10726000CDF838B009234246394605B0BDE8F04FA5
:107270000BF016B9500C002070B50E4604460BF00A
:1072800066F9054630460BF062F9044B2A18214690
:107290001868BDE870400BF0FBBA00BF500C00202E
:1072A000014B18680BF0BDBA500C0020134B0122A3
:1072B00000214FF0FF309A60C3F80012C3F80803B2
:1072C000C3F80015C3F804259A60C3F80803C3F88F
:1072D0000015C3F804250A490A4A03F580334FF420
:1072E0000040C3F80825C1F88000BFF34F8FBFF3FB
:1072F0006F8FC1F88001C3F80825704700F0004087
:1073000000E100E00000F63F0A461E2302F8033BBE
:107310000448C368C1F8033003695360436993604C
:10732000704700BF580C0020024B5A8C02435A840D
:107330005B6A1847580C0020014B00215B6A184714
:10734000580C002010B5154C06F014F805F04CFC54
:10735000208DFFF7F1FF237E6BB12246104952F8D2
:107360000C3BE36063685360A368936004F1190009
:1073700002220DF07DF9236B93F87A30022B02D1B3
:10738000084804F0A7FAA36B94F8341094F8350079
:107390009847002384F83C3010BD00BF580C0020F3
:1073A00009730200840C0020034B93F83C300BB1AE
:1073B000FFF7C8BF704700BF580C002037B5654CB9
:1073C000256B95F8A42000238DF8053094F83D3006
:1073D0000AB10433DBB295F8681028B9FF2B03D14A
:1073E00095F869308B4202D0FF2005F097FE95F8A2
:1073F0009A30032B00F29680DFE803F00276798C56
:1074000094F83E30ADF806305348A5F8583003F0F4
:10741000B9F900284DD0216C8020FFF785FF0123AA
:1074200085F8953095F89B30216CDB0003F008025D
:107430000B7803F0F303134395F89C20920002F0BD
:107440000402134323F0100203F00303032B0A701A
:107450006BD1CB78022B68D10023206C02781343C8
:10746000037095F8A330002B6FD04378002B6CD0BD
:10747000E06E06F001F9012384F88830D5E9402355
:10748000216CE06EC4E9202305F064FB95F86910D7
:10749000012006F04DF9226C1188A4F8991091781A
:1074A0002E4A012384F89830917084F83C3003B060
:1074B00030BD606C0DF105020DF106010BF069F8AD
:1074C000206488B195F8E13073B99DF805302BB987
:1074D00003808370206C01210DF013F8BDF80610B5
:1074E000206C0DF08CF89DE71D4B23649AE7B5F8EE
:1074F0005830606CADF806300DF105020DF1060153
:107500000BF047F8206400288CD140F2D5212720C9
:10751000FFF714FA104803F035F9002882D140F241
:10752000DE21F4E740F2EB21F1E7606C0BF09CF810
:1075300048B9236C1B7803F00303032B8CD003F0B2
:1075400047F9002888D1102387E706F095F805F061
:107550004BFB9BE7580C0020980C0020F10C0020FE
:10756000A00C002008B5094B93F83C20022A04D057
:107570004FF40F712720FFF7E1F9DA7A42F00102A8
:10758000DA72BDE80840FFF7DDBE00BF580C0020EE
:107590002DE9F7434C4C94F83C30256B012B064603
:1075A0000F4604D040F275412720FFF7C7F995F840
:1075B00094302BB1002185F894100420FFF7B4FE1D
:1075C000216C0B7803F00303032B05D195F89A3057
:1075D00013B90220FFF7A8FE226C137803F003030F
:1075E000032B03D05378002B5DD1012385F89A300B
:1075F00095F8A430B3B1D5E94201236B94F83D90DE
:10760000C4E920014FF0000893F8690084F88880ED
:107610000BF0D6F92D49CDF8008003464A460120EB
:1076200005F052FA002E40D1002F3ED0D4F89C3005
:1076300030469847002838D094F83430ABBB256BDF
:10764000D4F8A430C4F8A03095F8A43094F83D00E4
:1076500083BBFF2895F8691003D195F868308B42F9
:1076600001D005F05BFD95F8A43033B3E06E06F071
:1076700003F8002384F88830D5E94223E16ED4F87A
:10768000A000C4E9202305F065FA002006F006F802
:1076900095F86810002006F04BF8022384F83C307F
:1076A00003B0BDE8F0830223A0E703B0BDE8F043D8
:1076B000FFF748BE0430C0B2CBE7D4F8A00005F015
:1076C000DBFF05F091FAE0E7580C0020C80C002021
:1076D000044B93F83C2002F0FF000AB9187670477B
:1076E0000C207047580C00200B4B0C4A70B5064616
:1076F0000D461A60FFF7ECFF18B1DE212720FFF7D7
:107700001DF9074C012104F148000CF0FAFEC4F801
:10771000A460E56670BD00BF54000020F47C020048
:10772000580C0020024B012283F8A820704700BFAC
:10773000580C0020F0B5734D85B002AC84E803000E
:1077400095F83C100A9F01F0FF0611B90AB103B188
:1077500027B940F24F112720FFF7F0F894E8030013
:1077600005F12C0C8CE803002C6B6A62C5F89C3088
:10777000AF6385F8A86085F8346085F8A96085F85E
:10778000356085F898606E842E8505F0F3FC05F071
:107790002BFA94F96C0005F07FFD606A05F05EFF3E
:1077A000E06905F07FFD94F8B40005F0A1FD94F8C0
:1077B0006810304605F06EFE002800F0A080524BA5
:1077C000186805F051FF23696B646369C5F8AC3034
:1077D00094F877308BB9216F79B1B4F8CE20B4F832
:1077E0009830934209D1B4F8742094F87600134489
:1077F000A4F8CE30012206F0A1FB444E04F58873B4
:1078000004F5907718685968324603C20833BB42C2
:107810001646F7D1D4F82021C5F889205A683C4B88
:107820005A602B6B93F89E2093F86860253A012AE2
:1078300003D993F89F20252A51D193F84A322BB1CE
:10784000012E03D0012B0CBF0126022604F13007C4
:10785000314638460CF09CFF31460CF0F9FCA38F02
:1078600094F86910834228BF0346384685F83E30B5
:107870000CF077FF94F8691094F8A470B4F84460A1
:10788000082908BF04210CF0E3FC0FB9043080B2D2
:10789000B04294F8A33028BF304685F83D008BB144
:1078A000012385F88830D4E9402394F86800C5E9BD
:1078B00020230BF085F80346002014490090FB229A
:1078C00005F002F90120FFF779FD124BD3F850358E
:1078D00023F00803032B06D140F2F9113BE7042EF5
:1078E00008BF0826B2E700232B606B60AB60B4F8DA
:1078F00098306B8023882B8094F8B4302B7105B0BE
:10790000F0BD00BF580C002054000020C80C00201F
:10791000E10C00200010004010B50F4C94F83C30F2
:1079200083B9FFF70FFD236B93F8771001F0FF0287
:1079300089B9196F79B1BDE8104093F87600114606
:1079400006F0FCBA94F83C30012BECD040F20E214A
:107950002720FEF7F3FF10BD580C0020014B1876CE
:10796000704700BF580C00202DE9F3411F4D8207DE
:107970002C6B06460F4624D5D5F8B03023B940F21B
:1079800066412720FEF7DAFFB5F8B420D5F8A0103D
:107990001846033291F8018009F0BCFF0DF1020294
:1079A00001A9C5F8A000D5F8AC000AF012FF0198B3
:1079B0000AF0F9FE012238604146D5F8AC000AF021
:1079C0009EFEF3070ED5D4E94232013342F10002A4
:1079D000C4E9423294F89C30012B0CBF00230123F0
:1079E00084F89C3002B0BDE8F08100BF580C002044
:1079F0002DE9FF47AF4C0023CDE9023394F83C302A
:107A0000D4F830A0022B07460E4604D04FF49D61F7
:107A10002720FEF793FF238D5A0606D44020FFF758
:107A20008BFC238D43F0400323859AF8A430002F6C
:107A300000F04681ABB105F005F905F0E9F880B931
:107A4000D4F8A0305A7862B11B789AF89C20C3F31E
:107A5000C0039A4205D1012384F83530FFF772FC48
:107A6000F8E0D4F8A0305978A4F8B41009B3D4F8E9
:107A7000AC000AF01AFEC4F8B000238D9AF89B20DF
:107A800043F480732385D4F8A0301B78C3F38003BC
:107A90009A4200F0E280256B95F89A30ABB3022B46
:107AA00011D1606C02A90AF097FD28B94FF47971E1
:107AB000AEE7C4F8B010E0E7D5E94032013342F157
:107AC0000002C5E9403295F895304FF0000885F87E
:107AD0009A8093B185F8958002F064FE10B940F267
:107AE000FB3195E741460820FFF71EFCD5E94032FF
:107AF000013342F10002C5E9403295F89B30012B79
:107B00000CBF0023012385F89B30238D43F4806351
:107B100023854FF00008D4F8A0109AF89C200D7827
:107B2000C5F3C0039A4240F0B98005F00305032D68
:107B3000D4F8309000F09380002D40F09B8099F8AD
:107B40009C30013B18BF012389F89C30D4F8A03049
:107B50005B7833B1D9E94232013342F10002C9E91D
:107B600042329AF8A33093B10123216B84F8883014
:107B7000DAE9402391F86800C4E920230AF020FFE5
:107B8000034600204C490090FB2204F09DFF002E8C
:107B900040F0A58094F8A930012B00F2A080D4F821
:107BA0009C3001209847002800F0998094F83430E8
:107BB000002B40F0948094F89930C3F30012DB0658
:107BC0005FBFD4F8A4301B78C3F30013C3F10100E6
:107BD000D4F8B03048BF304623B9B4F8B4300BB154
:107BE000002A7CD000287AD1638C002B77D1FFF754
:107BF000E5FB1DB103A90220FFF7B6FEB8F1000FA7
:107C000004D0B4F809300133A4F80930002F6AD049
:107C1000B4F805300133A4F80530002384F8A93006
:107C2000264803F035FE029840B10AF0BCFD216BF6
:107C300000234372072201300CF008FD039B33B18F
:107C4000216B00221A720C2203980CF0FFFC002E0C
:107C50007FF404AF04B0BDE8F087B8465BE7238D3E
:107C6000012043F4006389F894002385FFF75CFB4F
:107C7000002564E74B78002BFAD0228DD4F8B05061
:107C800042F400622285002D3FF46BAFFB2B07D836
:107C900094F8A8305BB12020FFF74EFB002560E789
:107CA00094F8343043F0100384F83430F6E73D465E
:107CB00045E700BF580C0020C80C0020840C0020B1
:107CC0000BB104F0F5FF94F8A930013384F8A93022
:107CD000238D002543F400732385A84641E705F072
:107CE00047FD012685E7B4F807300133A4F80730D3
:107CF00096E700BF65750200F179020091750200F8
:107D0000A9730200024B1B68002283F868207047A9
:107D1000100D002008B503F015F8014B187008BDD0
:107D20001000002008B5FFF7F5FF044B18680AF0B3
:107D3000ADFE05F01FFB032008BD00BF100D0020A5
:107D4000044B1A6892F85020032A01D000F0ACBF0F
:107D500058687047100D002010B5064C20680AF0D6
:107D600095FE2068012380F86830BDE810400BF0D4
:107D700013BA00BF100D002008B5FFF7E1FF20B9CE
:107D800040F2F2413220FEF7D9FD05F075FC0020EB
:107D900005F084FC024B1B68042283F8682008BDB0
:107DA000100D002070B50646FFF7CAFF054620B942
:107DB0004FF49A513220FEF7C1FD294C236893F805
:107DC0005030013B022B02D941F24631F2E77EB13D
:107DD0000CF071FB38B1236893F86820022A0FD8A1
:107DE00041F2C621E6E728460CF07DFB0028F2D1DF
:107DF000236893F86820022A19D841F22631D9E77E
:107E000093F86820082A02D941F2C721D2E793F8F3
:107E10006830A26803F180431269033B284652F898
:107E2000233098470C2814D941F25B31C2E793F80C
:107E30006820082A02D941F22731BBE793F868305D
:107E4000A26803F180435269033B52F823309847FC
:107E5000E8E7A368DB68BDE8704053F820301847B6
:107E6000100D002008B5074B93F900207F2A04D19C
:107E700040F243313220FEF761FD02707F221A701A
:107E800008BD00BF1000002010B504788EB004F0CB
:107E90000F04224604A90AF05FFF05F06BFAFFF712
:107EA00039FF042C36D11D4A059B1468197894F8C3
:107EB0007B2091422ED1597894F87C20914229D18F
:107EC000997894F87D20914224D1D97894F87E2035
:107ED00091421FD1197994F87F2091421AD15A7991
:107EE00094F880309A4215D19DF8212094F8823080
:107EF0009A420FD10DF10F00FFF7B4FF9DF90F006B
:107F000094F8813094F8902094F87110009004A8AF
:107F100000F07CFF03200EB010BD00BF100D00204C
:107F200010B50F4A136893F86810022904D841F27B
:107F30003D413220FEF702FD93F86810082902D96E
:107F400041F23E41F5E793F86830926803F18043CF
:107F50009268033BBDE8104052F82330184700BF39
:107F6000100D002010B518B1BDE81040FFF7F4BEA9
:107F7000E9B10F4A136893F86810082904D841F250
:107F80000D413220FEF7DAFC93F868100C2902D973
:107F900041F20E41F5E793F86830926803F18043AF
:107FA0005268093BBDE8104052F82330184710BD15
:107FB000100D002070B500F09FFEFFF7C1FE0546D2
:107FC00020B940F2EE313220FEF7B8FC274C206891
:107FD00090F868305BB190F86830012B07D0002131
:107FE0000BF09FF818B9BDE87040FFF7B5BE2368E5
:107FF0001F4A93F87230D65C304605F079F9236851
:10800000012183F88160252005F088F8284605F0D5
:1080100033FB0121084605F071F9E81C266802F0DF
:1080200067FD236886F8740093F8743023B104F078
:10803000D9FC402005F056FB236893F85030023BF2
:10804000012B03D80121002005F072FB236840F6C4
:108050000802A3F87020002283F87720A3F8782084
:1080600083F89020032283F8682070BD100D002053
:10807000787F040070B5374C236893F86830012B83
:10808000054604D940F6D5013220FEF757FC05F02D
:1080900071F805F033FB04F0BFFC2F4805F0E4FA5B
:1080A0002E4805F0DBFA2E4805F0FCF86B7A1BB180
:1080B00020685C300BF0D7FF2B7A032B02D14FF4F2
:1080C0001161E1E72068B3B9032190F8722090F8BC
:1080D00048500E460132B2FBF6F303EB4303D31ACA
:1080E000DAB245FA03F3DB0703D4013911F0FF01DB
:1080F000F0D180F8722090F9540005F0CDF8256891
:1081000095F8753013B3D5E922126FF000439A4207
:1081100008BFB1F1FF3F19D00DF040F8D5E9222397
:10812000904271EB030311D3012002F0F3FC68B11C
:10813000256802F0BFFC04460DF030F8094BA4FBA3
:1081400003341B1844EB0104C5E92234BDE8704038
:10815000FFF730BF100D0020C4000020555555001A
:10816000D6BE898E40420F002DE9F041564D06469D
:10817000D5E90070002303704370884605F07CFA4F
:10818000032E3CD16A68137823F00F0343F00303F6
:1081900013700C23537007F17B0168680CF06DF9C4
:1081A00097F8821068680CF07CF92B6893F87520BA
:1081B00093F8417003F142047AB193F85020032AF6
:1081C00071D193F84920002A6DD093F8730002F022
:1081D0000FFD00281CBF04460127686821460CF0EB
:1081E0003EF9686839460CF04FF9384BD3F8043142
:1081F000002B5BD040F237613220FEF79FFB052E4B
:10820000C9D16C682868237823F02F0343EA48110A
:10821000222241F0050121706270C36CDB69C4F851
:108220000F30C36C5A6AE274110A120C2175627520
:108230009A69998D40F2E24CB1FBFCF1A175996A03
:10824000B2FBFCF2B1FBFCF16276E175C2F30722EE
:10825000C1F307212176A2761A8CE276120A2277E0
:108260005A8C6277120AA277D3F8A720C4F81F208D
:1082700093F8AB3084F82330C36C93F8B23094F8A1
:10828000242003F01F0322F01F02134384F824303C
:1082900002F0C4F994F8243003F01F0343EA4013BA
:1082A00084F8243077E793F8700090E7052E08D122
:1082B0002B682168DA6CC2F80A10A188D181DB6CC6
:1082C0005F72BDE8F08100BF100D0020001000407B
:1082D00010B50B4C00210320FFF746FF2068032157
:1082E0000AF01FFF18B9BDE81040FFF735BD0121A6
:1082F000084605F01DFA2368092283F8682010BD9E
:10830000100D002070B5FFF71BFD054620B940F2A7
:108310005C513220FEF712FB134E30680A2380F8BE
:108320006830002101F00AF83368DA6C2B7892F893
:10833000A64004EA531404F0010421460520FFF787
:1083400013FF306804210AF0ECFE18B9BDE8704054
:10835000FFF702BD2B783268C3F3401382F88330F5
:10836000D36C83F8A64070BD100D002008B5FFF750
:10837000D1FC054B18680AF089FB04F0FBFFBDE84F
:108380000840FFF717BE00BF100D00202DE9F04395
:10839000044693B0FFF7BEFC267806F00F06204691
:1083A000324608A90AF0D8FC099D9E4C75B39DF889
:1083B0003130012B41D16B7903F0C003A3F14005AB
:1083C0006B426B41256895F8742062B15BB10BF08C
:1083D00089FE236885F8700093F8702083F8712077
:1083E000012283F87720236893F87000082826D1AB
:1083F00009999DF831000CF08EFD22680999054617
:1084000070329DF8310002F039FB50B32368062E1C
:1084100093F8492034D8002A18BF1546099A83F8E2
:1084200079500AB39DF8311083F882101168C3F8AF
:108430007B109288A3F87F2016E00023C2E706AAEB
:108440000DF1170102F03CFB20B940F6513132200A
:10845000FEF774FA9DF8170006A90CF05CFD0546BE
:10846000D4E7236883F87900062E00F2D480DFE891
:1084700016F06600DB000900D200D200D200300006
:108480000025CBE704F076FF256895F879303BB9F5
:10849000032520680AF0FAFA284613B0BDE8F083F5
:1084A00095F85030013B012BF2D806A8FFF7DAFC13
:1084B0009DF91830029395F88130019395F8713049
:1084C000009305F14202FF23022108A800F020FCDE
:1084D000DEE7256895F87930002B00F09C8095F850
:1084E0005030022B18D106A8FFF7BCFC9DF91830BC
:1084F000029395F88130019395F87130009305F15E
:108500004202FF23062108A800F002FC2368002293
:1085100083F890200925BCE7012B7CD106A8FFF742
:10852000A1FC9DF91830029395F88130019395F8DC
:108530007130009305F14202FF230621C5E725684B
:1085400095F87930002B66D095F85030022B15D174
:1085500006A8FFF787FC9DF91830029395F8813043
:10856000019395F87130009305F14202FF23002139
:1085700008A800F0CDFB23680122C9E7012B10D128
:1085800006A8FFF76FFC9DF91830029395F881302B
:10859000019395F87130009305F14202FF23002109
:1085A00093E7032B3AD1099B95F85620197891420D
:1085B00025D1597895F85720914220D1997895F88E
:1085C000582091421BD1D97895F85920914216D163
:1085D000197995F85A20914211D15A7995F85B3062
:1085E0009A420CD19DF8313095F85520981A4342A3
:1085F000434195F85220012A03D10A2549E7002377
:10860000F7E7002BF9D195F87330082B03D095F8D4
:1086100070209A42F1D004F0ADFE39E740F6F54102
:1086200015E700BF100D002023689DF8322093F855
:10863000755093F87970012A85F001057DD10A9A69
:10864000567906F0C006A6F140014E424E4193F81D
:108650005020032A73D193F84920002A6FD093F851
:108660007380B8F1080F6DD0404602F0E5F900289C
:1086700018BF0546002E68D00A99404602F07EFADF
:108680008146216891F84100B9F1000F5FD040F0B8
:10869000020891F85030032B62D1099B91F85620C3
:1086A0001E78964255D15E7891F85720964250D167
:1086B0009E7891F8582096424BD1DE7891F8592057
:1086C000964246D11E7991F85A20964241D15A7964
:1086D00091F85B309A423CD19DF8316091F8553069
:1086E000F21A5642564191F87030082B33D091F867
:1086F0007380A8EB0303D3F1000848EB0308B9F13A
:10870000000F2BD135B10A9B9DF8322042310BF07E
:10871000B4FC0546002F3FF47EAF236893F8523037
:10872000012B06D0002B7FF476AF56EA08033FF406
:1087300072AF002D7FF461AF6DE7002687E793F8F5
:1087400070808EE74FF000099BE7B14699E78046BD
:108750009FE70026C7E74FF00008D0E70125D9E7DB
:1087600004F008FE002F3FF493AE20680A9B9DF8AA
:10877000322000F1420190F841000BF07EFC18B964
:108780002568B9F1000F10D006A8FFF76BFB22682F
:108790009DF91830029392F88130019392F871306C
:1087A00000934232434601218FE695F85130023B57
:1087B000012B3FF66DAE002E3FF46AAE06A8FFF720
:1087C00051FB9DF91830029395F88130019395F88B
:1087D0007130009305F14202FE23E4E713B5414CEA
:1087E00020680AF053F9FFF78DFA236800225A72C5
:1087F000DA6C1188598140F2E2409169B1FBF0F1E5
:108800001984118C528C9A844FF47F42DA844FF68B
:10881000FF7259841A85694660680BF027FE21684B
:1088200091F8753001F11402EBB163681B785B06B7
:1088300019D59DF8053003F0C003402B13D10098E3
:10884000BDF804304861938091F87100082801F167
:108850000E0237D00D3102F033F938B941F29131BF
:108860003220FEF76BF800234B61ECE723685A7B5C
:1088700042F002025A73D3F87B20C3F81A20B3F8EF
:108880007F20DA83236893F95410D86C02F03EFA03
:108890002068154902220BF0D9FE20681349C36CE9
:1088A0001A88A0F8332093F8A63080F835300222D9
:1088B0002A300BF0DDFE2068022102B0BDE8104036
:1088C00000F03CBD91F882304B73D1F87B30C1F899
:1088D0000E30B1F87F3093800023C1F81A30CB837B
:1088E000D0E700BF100D0020092A0300E129030092
:1088F000C36C10B5044623B940F221313220FEF793
:108900001DF8022242721B88438103490BF09EFE30
:108910000023E36410BD00BF092A0300014B024A93
:108920009A607047100D0020AC000020026810B55E
:1089300022B940F654113220FEF700F8034B1A60BA
:108940009B68BDE810401B68184700BF100D002051
:1089500038B590F84030054613F0FD0F14BF0120E4
:10896000002085F8410005F1420101F057FF95F81C
:108970004030023BDBB2012B94BF0123002385F87A
:10898000753015D802F096F804460CF007FC094B38
:10899000A4FB03341B1844EB0104C5E92234002076
:1089A00002F0B8F820B940F6CB113220FDF7C6FF2F
:1089B00038BD00BF40420F000249022236300BF0A2
:1089C00045BE00BFF7290300F8B5184F0E46786082
:1089D00001210020FEF75EFB054620B940F672013A
:1089E0003220FDF7ABFF4FF48872002109F00AF83E
:1089F00001210846FEF74EFB044620B14FF4887271
:108A0000002108F0FFFFBB6813B940F67C01E7E7DF
:108A100030460AF015F928460AF071FB24B12046C9
:108A2000BDE8F8400AF06BBBF8BD00BF100D002098
:108A300010B5084CA0F10801206809F0B6FFEFF36B
:108A4000108272B623790133DBB2237102B962B6A8
:108A500010BD00BF1C0D00202DE9F04307468DB06E
:108A60000C4600200121FEF753FB054620B940F2D9
:108A7000C9113320FDF762FFA0300AF01AFBC0B91C
:108A800028460AF022F8054698B93846FFF7D0FF85
:108A90008DF8045002238DF805309DF80430002035
:108AA00063F307009DF8053063F30F200DB0BDE8B8
:108AB000F08307F1250602A930460AF07DF9E21C91
:108AC00007F10903154653F8041B42F8041BB3428F
:108AD000F9D1FA7C12F0100F04F11F030AD05107EC
:108AE0000FD49DF8186005991846324608F012FF19
:108AF000E6720346667B04222270F20604D45621F5
:108B0000B7E70022E272F5E73D4A294651F8040B27
:108B100042F8040B9942F9D194F80B80394D424642
:108B200005F1210008F0F6FE16F0040104F1060C30
:108B300005F1070E04F10D0026D02B7EFE2B23D16C
:108B4000A97961716E79D5F80710E670C4F806103E
:108B50004FF01108BEF8041084F800800126267139
:108B6000ACF804102373D5F81930C4F80D3095F91A
:108B70000E20B5F81D308380E2743846FFF758FFA9
:108B800004238DF8043085E795F8059084F8039068
:108B900008F10A0313FB09F302336370AB796371C5
:108BA000D5F80730C4F806300322BEF8043022702E
:108BB000ACF8043004EB0803AD7B84F80C805D73E3
:108BC00016F0080306D004232371B8F11F0F11D942
:108BD000A6214EE706F00306032EF5D009B10123C6
:108BE000F2E7022E01D12671EFE70EB92271ECE710
:108BF000A3213EE70449424608F08CFEBDE700BFD2
:108C0000210D00201C0D00203D0D002010B5074C4B
:108C1000236C43B9206809F0B8FE206418B94E21CE
:108C20003320FDF78BFE206C083010BD1C0D00209A
:108C30000A4A08B5136C23B94FF4D7713320FDF7F6
:108C40007DFE0833984202D040F2AF11F6E70023D0
:108C500013641379013BDBB2137108BD1C0D0020B6
:108C6000253270B592B205460C461E4609F064FEE8
:108C700045B1054A0023156082F8444082F84560FA
:108C80001471136470BD00BF1C0D002010B5054C9D
:108C9000206809F074FE0023236494F844302371A3
:108CA00010BD00BF1C0D002070B5124D2E6CEEB92A
:108CB000286809F06AFE286420B940F28511332043
:108CC000FDF73CFEFFF7A2FF1C22044631460930A7
:108CD00008F098FE7F2384F82330FF23E375A37206
:108CE0002377E37C012262F34613E374286C2D3072
:108CF00070BD00BF1C0D002010B5044C216C21B1CB
:108D0000206809F052FE0023236410BD1C0D0020D2
:108D10002DE9F84F1D463B4B9DF828A01B799DF887
:108D20002C809DF93090012B06468B46174666D065
:108D3000FFF76CFF1C2204460021093008F062FE98
:108D400001236372BBF1060F52D8DFE80BF0044039
:108D5000465151514A00E37C23F0130343F01303BF
:108D6000E37404F10A0304F10B025146304609F0A2
:108D7000D7FF0123E27C63750023A37552074FF0F0
:108D8000FF0384F81290E37537D5AA1E012A8BBF22
:108D9000B2683A681168C4F81D2088BFC4F81D1075
:108DA00004F11D0394BFBA8892889A8025777F23A7
:108DB00084F8233084F824802046FFF739FF00230D
:108DC000237211492046BDE8F84F0BF04BBCE37C01
:108DD00023F0150343F01503C2E7E37C43F01003CF
:108DE000BEE7E17C21F0120141F01201E174B8E725
:108DF00040F239313320FDF7A1FD2377D7E7BDE8F5
:108E0000F88F00BF1C0D0020598A02002DE9F047A1
:108E10001E461E4B9DF920A01B79012B80468946DA
:108E2000154631D0FFF7F2FE044601271C2200212F
:108E3000093008F0E7FD04F10A0304F10B0249468A
:108E40004046677209F06CFFE17C84F812A045F09F
:108E50001A0521F01B0105F01B050D43FF23E574E6
:108E6000E375237700257F236775A57584F8233084
:108E700084F824602046FFF7DBFE25720449204673
:108E8000BDE8F0470BF0EEBBBDE8F0871C0D0020FD
:108E9000598A02002DE9F04F8DB09846BDF8583040
:108EA0000393054691468A460CF078F9D5E9302BB4
:108EB00007460291B8F1000F00F08681284609F0BC
:108EC00080FF831AD3F1000848EB0308B9F1000FC3
:108ED00000F0EA8017F5FA630493029B43F1000661
:108EE00000F01EFDD5F804310446A3B30021D3F8E9
:108EF000100200F01FFD84420146D5F8040110D095
:108F000000F50270059100F0E1FC00230599C5F819
:108F1000F830D5F8040198B940F221712120FDF70D
:108F20000DFD00F50273D0F81022C5F8F830D5F821
:108F3000E03093422CBFC5F8E030C5F8E020E8E708
:108F400021B3D1E90032D1F808C013EB0C0342F190
:108F50000002C0E98232214605F1D80000F0B6FCDB
:108F6000CCB1D4E90031A068D5F8C0200592C01872
:108F7000049B41F10001CDE900360AF0A0F9059A01
:108F80008242044607D240F28F31C7E70022002315
:108F9000C0E98223DFE7049BE418D5F8C03046F12E
:108FA0000006E31A66F10002C5E93632039B002B86
:108FB00070D14FF0FF326FF00043C5E92823012044
:108FC00004F018FDD5F8A0300393D5F8A43004932D
:108FD000039B049A1B1B00F523404FF47A7100F1A8
:108FE000A100B0FBF1F000F23D2162EB0600012B85
:108FF00070F100024FF00002C0F2DF809B45824119
:1090000000DB9B46D5F8C400834528BF8346C5F8DE
:10901000CCB0B9F1000F05D0D5E93623C5E92A4611
:10902000C5E92E234FF00009C5F8C810C5E92C4644
:1090300022468AF80B90AAF80890334628460591F4
:1090400009F00AFF05998AF80A00CAF80410B8F175
:10905000000F00F0B48001238AF80030039B029ACD
:10906000D81B049B63EB0203012873F1000206DBAB
:10907000654F874279EB0303ACBF8146B946A9EB44
:109080000107CAF810708B4534BF002001200DB0D5
:10909000BDE8F08F039842F2107321463246E0FBA0
:1090A0000312C5E928128AE790423CD1D5E928127B
:1090B0006FF000439A4208BFB1F1FF3F78D0012022
:1090C00004F098FC029A8DF8189040F20B13FB18EC
:1090D00042F1000200F523404FF47A74CDE90A32E0
:1090E000A1304FF40033B0FBF4F000F23D2406A8A9
:1090F0000794089306F088FE10B940F2BB410DE7D3
:10910000D5E928320A99029E5B1A0B9962EB01029B
:109110001B1B62F10002002A3C464FF00108B8BF59
:109120004FF0000B4BE7D5E93636FC1A9B18B4FB21
:10913000F2F402FB04F446F10006E418A4EB070382
:1091400046F10006B3F5857F04D8A41846F1000661
:10915000C84634E701208DF8189004F04BFC00F568
:1091600023404FF47A73A130B0FBF3F000F23D20BE
:109170000790D5E93603D5F8C040D5F8B010ADF862
:1091800020900A1AB2FBF4F26243121843F1000372
:109190002846CDE90A238DF8239009F05DFE21468B
:1091A0008DF8220006A80BF022F8DDE90A46CFE789
:1091B000029E3C464FF0010801E7934622E7CAE9C8
:1091C00004468AF800805EE7B9F1000F7FF482AEB2
:1091D000D5E936011318A7EB0004B4FBF2F402FB47
:1091E00004F441F10006E418D5F8A830A3EB00031D
:1091F000B3FBF2F303FB02F246F10006121841F151
:109200000001C5E93621A3E70040420F30B504460E
:1092100089B090F80031B3BBC0F8041191F8303236
:1092200003F0FF0523B14FF427712120FDF786FBE2
:10923000FF2380F8003180F8015180F8085109F0CF
:10924000C0FD2146C4F8E000104806F07DFD20284E
:1092500084F8980013D000952B46012202A92046DD
:10926000FFF718FE10B940F2B121DEE794F898003C
:1092700002A906F0DFFE18B940F2B221D5E70725B2
:10928000284609B030BD0C25FAE700BF592F03006E
:109290001FB5044690F800310BB109F0DEFE084A14
:1092A00007CA01AB83E807001946204609F007FF0B
:1092B00020B140F221212120FDF740FB04B010BD78
:1092C0007C7F040070B5044688B00E465ABB90F807
:1092D000003103F0FF0553BB80F80151FF2380F8F4
:1092E000003109F06EFD2146C4F8E000124806F096
:1092F0002BFD202884F898001BD000962B460122D5
:1093000002A92046FFF7C6FD20B94FF44271212083
:10931000FDF714FB94F8980002A906F08BFE18B92B
:1093200040F20931F3E71125284608B070BD0C253D
:10933000FAE70725F8E700BF592F030001292DE9B7
:10934000F341044604D902294CD040F62D0120E017
:10935000D0E92A6703F0A4FE40F2A765D4F804819F
:10936000751947F100062D1846F10006D8F8187057
:1093700000F0D0FA04F1D80383420DD0CDE90056B5
:109380003A46D8E9820109F09AFF874205D240F2B5
:10939000A2312120FDF7D2FA0020274B1A68D4F819
:1093A0000431824297BF40F2E2419A69B0FBF1F288
:1093B00001FB120294BF821A80189A6241F66A0277
:1093C0009A859A6A41F66901821A8A4202D940F264
:1093D000BD71DEE7401946F10006C3E9820602B01E
:1093E000BDE8F081012380F80831D0F80431002570
:1093F00040F2011283F83052A3F86820FF2283F86C
:109400006A20D0F804012946303001F0CDFED4F8AE
:10941000040110B940F2D971BBE709F028FF94F8B4
:109420000231C4F80451002BD9D003F0EDFF06F04F
:10943000E5FA84F80251D2E7640D0020F7B51E4E1C
:10944000012333700027CDE900776846FDF79AFEC7
:109450000546C8B10023337003B0F0BD90F8310267
:1094600007F042FD94F8310284F8305206F098FC7F
:1094700010B940F2E1111BE0202384F8313204F5E9
:10948000027000F007FADEE7009B002BDDD093F8B6
:109490003022002AD9D018884FF6FF739842D9D0CD
:1094A0002946FDF735FE04460028D7D14FF4F9715F
:1094B0003520FDF743FA00BF680D002038B50C4B8E
:1094C00090F86820054690F8690033F8124004F0DF
:1094D00091FA04F29D7404444FF47A712846B4FB67
:1094E000F1F1BDE8384001F583710BF093B900BF8D
:1094F000887F04002DE9F8430C46054691461F4637
:1095000009F075FE94F89E8006461FB101212046A1
:1095100003F0D0F994F83032032B40D8DFE803F0A1
:10952000023C363CB9F1000F04D140F23B2135201A
:10953000FDF704FA012384F830322046FFF7BEFF1E
:109540004FF00009D4E9823219EB030342F1000223
:10955000C4E98232C5E9043200232B702E8194F8CD
:109560009E600B3EF3B21A2B9FBF3A4EDE40F6438D
:1095700006F0010688BF0126204686F001060BF0A2
:1095800053FD00B176B10023AB7211E00323D4F890
:10959000389284F83032D5E7D4F81890D2E740F208
:1095A0007321C4E794F83032012BDAB22BD1AA72BE
:1095B0000023EB7204F130000BF0D1F86860002F4B
:1095C00046D0A8F10D08B8F1010F41D94946284607
:1095D0000AF00DFE1FFA80F820460BF025FD074625
:1095E000D6B9804518D3AE72D4E9823109FB00F2B6
:1095F0009B1841F10001C5E90431B9F1000F04D114
:1096000040F2B52193E70223BEE7494628460AF017
:10961000EEFD38441FFA80F84146204603F04AF92F
:10962000D5E90423C4E98223236F8BB1B4F8CE10AB
:10963000B4F898305B1A1BB2002B09DDB4F8742023
:109640001344013BB3FBF2F313FB0213A4F8CE3037
:10965000BDE8F883050000042DE9F843044620B96D
:109660004FF493713520FDF769F9082967D8DFE8D1
:1096700001F005474F4F4B66555C630090F8303260
:1096800013B94FF49771EDE703F054F8002859D05F
:1096900009F0ADFDDFF8B080A56998F8013000F25F
:1096A0006D191FFA89F91BB9236B9D4228BF1D460E
:1096B00004F130000BF053F8064609F098FD00F174
:1096C0006607022007F096FA16FA87F7ED1B25EADF
:1096D000E575854228BF05460221284607F0DAFADB
:1096E00000B92F444A46394620460BF083F8C8F8A3
:1096F0000400A06907F024FA20BB4FF49071B1E791
:10970000BDE8F8430BF054BCBDE8F84304F038B8AA
:10971000BDE8F8430122002109F078BD012004F0E2
:1097200029FCBDE8F84309F059B990F83032042B10
:1097300008D04FF4AA7195E740F2591192E740F230
:109740005D118FE7BDE8F883680D0020024B002211
:10975000C3E90022FFF772BE680D0020014B58706C
:10976000704700BF680D002038B5044620B94FF49B
:10977000E2713520FDF7E2F890F8303203F0FF0592
:1097800013B140F2C511F4E790F83132202B02D02A
:109790004FF4E371EDE70146044806F0D5FA84F88A
:1097A0003102202814BF28460D2038BD59960200EA
:1097B00008B503F075FC054B5A6882422ABF187839
:1097C000002080F0010000F0010008BD680D0020BD
:1097D00010B50446042936D8DFE801F0031A161E36
:1097E00031001B4B1B7803F0FF026BB9012109F01C
:1097F0000DFDB4F898300133A4F8983003F004FE5E
:10980000BDE8104006F0FAB8042384F83032F5E7DA
:10981000032384F8303210BD8369C0F83832D0F8A1
:1098200054328362B0F850328385D0F85832836165
:10983000D0F85C320362FFF741FE0223E9E7BDE89E
:109840001040FFF73BBE40F23E313520FDF776F881
:10985000680D0020014B00221A607047700D002037
:1098600008B5044B186810B9FFF7F4FF08BD0C20C9
:10987000FCE700BF700D0020C3693BB983692BB9B9
:10988000034B1B681B1A5842584170470120704710
:10989000700D002010B5D0E906436BB1D0E902216C
:1098A0001144DA689C610A44DA6082693AB1D36192
:1098B0000023C0E9063310BD034A1460F5E7002B0E
:1098C000F6D0DA60F4E700BF700D002008B5C16182
:1098D00091B90F4A1368836103B1D8611060C269FE
:1098E0000023C3609AB1D3687BB181688B420AD2EE
:1098F0002D213720FDF722F88B6988618361002BC9
:10990000EDD0D861EBE75B1AC3600023D36008BDDC
:10991000700D0020014B1868704700BF700D0020CB
:10992000034B1B68002003B9704718469B69FAE790
:10993000700D00200B4B00221B6830B504464FF021
:10994000FF35104623B911B9002808BF104630BDB5
:10995000DA68A24203D3AA423CBF154618461A460B
:109960009B69EFE7700D002038B5036A1BB1826870
:109970009C68A24203D2CD213720FCF7DFFFC169EA
:109980008569D9619D6141B18B61996941B1CB61B3
:10999000C1680A44121BDA6038BD02490B60F4E763
:1099A000D960F9E7700D0020F8B5264B044608464B
:1099B00000211D680B466DB95BB1984225D3B0FB01
:1099C000F3F1013C03FB01F51C44B4FBF3F48C42BE
:1099D0000ED9F8BD2E690BB19E4207D226B94FF4BD
:1099E00096713720FCF7AAFFA98A3346AD69E2E7F2
:1099F000B5FBF3F603FB165626B9B5FBF2F602FBF0
:109A00001656DEB10139ED1AE1E7451E1D44B3FBE0
:109A1000F4F4B5FBF0F5AC42DBD3B3FBF5F605FB94
:109A200016374FB9B6FBF2F702FB176727B9B6FB3B
:109A3000F1F701FB17671FB10135ECE72846C8E7CE
:109A40003046C6E7700D002010B5044609F052FC00
:109A500008B9002010BDE04309F04CFC0028F8D004
:109A6000E31683EAA4635A1E1A42F2D020460AF093
:109A700014FF1828EDD8A3B2B3EB144F04D184EA35
:109A8000142313F0FF1FE4D0034B63405A1E1A4205
:109A900014BF01200020DDE7D6BE898EF0B5070C8B
:109AA000A7F5AA42144B543A012A03EA90231FD97E
:109AB00027F4004042F6AA22801A18BF0120002293
:109AC000162116461F2487EA060562EA05050135B8
:109AD00010D0DD03ADB245EA5606E503ADB201395B
:109AE00045EA52024FEA53034FEA5404EBD1F0BD6A
:109AF0000020E4E70020FAE7E0FF3F00304BF0B53C
:109B00001A88B0F85C70B0F85A605D88974228BF38
:109B10001746964228BF16461B2E85B00C462ED0FF
:109B2000B5F5A47F2DD040F648039D4201A928BF7A
:109B30001D4609F0BDFCBDF80A309F4228BF1F46F4
:109B4000BDF80C30E780AB4228BF2B462381BDF81F
:109B500006309E4228BF1E46BDF8083066809D42F2
:109B600028BF1D46A580FF232370E3881B3B9BB2C3
:109B7000E02B08D94FF4B7613920FCF7DFFE1B2F2B
:109B8000CED105B0F0BD63881B3B9BB2E02B02D960
:109B900040F2BA51F0E72389A3F5A4739BB2B3F561
:109BA000E06F02D940F2BC51E6E7A388A3F5A473A5
:109BB0009BB2B3F5E06FE4D940F2BE51DCE700BFE1
:109BC000740D002008B50AF057FA00F041FF00F0CC
:109BD0000DFD0AF039FD01F0D7F801F0D7FE01F0D4
:109BE000FBF8094909484FF4A4734B80084B1B222A
:109BF0009A800A8000221860DA821A835A745A8284
:109C000007230B718A7108BD740D002003021B002D
:109C1000AC110020044B41F64C52C3E902221B2236
:109C20001A74FFF7CFBF00BFAC110020014B93F9AE
:109C30000C007047740D0020034B5A8802801B787B
:109C400083700020704700BFAC11002013B58378EB
:109C50001A2B044609D8042B05D9012202FA03F372
:109C6000114A134205D1122017E0292B01D03B2BBA
:109C7000F9D12088B0F5706FF5D269460AF04AFA3A
:109C800068B9019B93F8382102F0FF004AB9A27825
:109C900083F83921FF2283F8382102B010BD022059
:109CA000FBE70C20F9E700BF200038040188A1F190
:109CB0001B039BB2E02B0CD84288A2F5A4739BB285
:109CC00044F24810834204D8034B002019805A8084
:109CD00070471220704700BF740D0020034B1A8894
:109CE0005B88028043800020704700BF740D002015
:109CF00038B504784278857804F0010352EA03010C
:109D000004F0020401D1112038BDBCB9002DFAD0F5
:109D1000002B08BF144601E000242546204609F028
:109D20005BFB0028EFD0284609F056FB0028EAD05C
:109D3000054B00209C74DD749882E5E7002BEBD185
:109D400014461D46EAE700BFAC11002013B5008899
:109D500069460AF0DFF918B10224204602B010BDAE
:109D6000019809F0FDFA0028F6D0019890F84A31E0
:109D70000BB13A24F1E790F8EC3003F0FF04002B2C
:109D8000F7D190F8E3309B0703D1012380F84A31E3
:109D9000E3E703490222E4300AF06AFCDDE700BF92
:109DA0008D4E0300F0B50378032B87B0044602D92B
:109DB000122007B0F0BD4378032BF9D8457E0DB1D2
:109DC0001120F6E78378012BF2D100F005FCC307E0
:109DD000F6D5A27812F0010014D0E178A3682069CA
:109DE00001294AD84549A0F253768E4247D86FF4EC
:109DF0001C77A3F6C41639448E4240D8834234BF40
:109E000012200020960713D5E678A3682169012E59
:109E100037D83B4EB14236D8A3F6C417A6F6C416BF
:109E2000B74230D88B4234BF122300231843C0B24C
:109E3000510712D5E178A2682369012925D8314953
:109E4000A3F6C4168E4222D8A2F6C4168E421ED89D
:109E50009A4238BF12252843C0B20028A9D1237ED8
:109E6000013B062BA4D80121FDF752F9054680B924
:109E700040F669513920FCF761FD1220C2E730201D
:109E8000C0E71223D2E73023D0E71225E3E73025DD
:109E9000E1E7A03009F00DF970BB6278A3788DF886
:109EA000072022788DF80620227E8DF80820DA0718
:109EB0008DF80C308DF8043013D55B072269A1684A
:109EC00003D54B089A4228BF1A46E378012B18BFE6
:109ED000B3FA83F3CDE9041214BF5B0902238DF8B2
:109EE000053003A9284609F0EAF800287FF461AF9D
:109EF00001A808F088FE5CE70C205AE73CF67002E7
:109F00008FFD7002CBF3700200B589B043798DF8F4
:109F1000043083798DF8053001238DF806300378FD
:109F20008DF80730B0F8013040F271214B430393B4
:109F3000B0F803204A430C49059209798DF81C10AA
:109F400000218DF81D100949A2F6C4128A4209D8D1
:109F5000A3F6C4138B4205D801A8FFF723FF09B06D
:109F60005DF804FB3020FAE7740D00203C369C00BD
:109F70002DE9F047437A990744BF43F00103437248
:109F8000447A620788B0054604D11226304608B0EC
:109F9000BDE8F08714F0F80FF7D1022CF5D000F0EF
:109FA0001BFB34EA000340F0C08195F84860002EA6
:109FB00040F0BB81012CE8D1AB69564AA3F2537142
:109FC000914200F2B481EA689342DED8B5F842309B
:109FD0000193AB8F00932A8EEB8E698DA88C09F0CC
:109FE0003AFA002800F0A3812B78012BCDD813B9C1
:109FF000AB78012BC9D86B78032BC6D895F84930BC
:10A00000013B062BC1D801210846FDF781F8074620
:10A0100018B90121FDF77CF8074607F1A00009F007
:10A0200048F8002840F07D81384608F054FD08B11A
:10A030003A26ABE7384608F048FD80460028F7D1BD
:10A0400001460DF10A00FCF7EDFF0446002800F080
:10A050006A81314BBDF80AA01868039041461B790C
:10A06000DFF8B8808DF81030204600F0FDFD2C4B55
:10A07000C4F840322046D8F80830A4F800A040F8D0
:10A08000303F09F0E1F8814600F0A0FAA4F83A90D8
:10A09000DFF8909098F8103084F8383010F0200FE6
:10A0A000D9F800301DBFB8F80420B8F80210A4F8A1
:10A0B0005A101B2208BFA4F85A20A4F85C2063B1F0
:10A0C000002305A88DF8143006940AF0DCFFD9F8B7
:10A0D000003094F96C105046984798F8013001937D
:10A0E00098F800300093B8F80430B8F8022004F172
:10A0F000140104F11000FDF77DF8236923B941F242
:10A100005D013920FCF71AFC63696BB941F25E010D
:10A11000F7E700BF3CF67002B48E0400AC110020DB
:10A120007A0D0020D400002009F0F4F8E06101F07D
:10A13000BFF820F07F40606295F84A3005EB43039A
:10A1400040F2E249598D988C4A4609FB01F109FB1E
:10A1500000F0FFF729FCA4F81C92A061C4F81802D3
:10A1600095F84A30D8F80C1005EB430320461A8EB8
:10A17000DB8E2284638409F064F803A904F1A6004D
:10A180000AF0C3F8FF2384F844326E4B1B6923B1F5
:10A19000012204F59D712046984798F8129098F88E
:10A1A00013A0B8F81480B9F1000F40F0C68000F099
:10A1B00013FA8146BAF1000F40F0BB8000F00CFAB0
:10A1C0008246B9F1000F40F08280092601F070F854
:10A1D0000C23B0FBF3F202FB1300C0B2431DDBB251
:10A1E000082B9ABF0D3084F8B20084F8B2300121F8
:10A1F000204600F039FD002E5CD12046FFF7B4FA6E
:10A200000646002856D16978384605F1030808F05B
:10A2100096FCAA7829784346384608F066FC002860
:10A220007DD03846FEF794FB2978AA784346384615
:10A2300008F092FC032387F85030FC64AB7813F0ED
:10A24000FD0F424614BF01210021384608F09FFC53
:10A250002B7853B995F80290CDE9056609F0FD0910
:10A2600005A8FCF78FFF00283FD00121384608F0F1
:10A27000A9FC0646F0B96B7A8DF81400DB0706D509
:10A28000EB680693AB69079301238DF8143005A999
:10A29000384608F014FF95F849100646384608F08D
:10A2A00021FC3EB921463846FEF7B0FF064600289D
:10A2B0003FF46CAE208800F025FA20880021FCF7DE
:10A2C0003DFF00283FF462AE41F2F12119E700287A
:10A2D0003FF47BAF05A920468DF814908DF815A0AA
:10A2E000ADF8168009F0DAFF70E7059EB442B7D0EA
:10A2F000B9F1000018BF0120B278F31C414609F003
:10A30000BCFE0028ACD0727A607A06F10A0304F130
:10A310000A0109F0B2FE0028A2D00B26CAE71226D5
:10A32000C8E70C2632E60D2630E611262EE630264A
:10A330002CE600283FF449AFCCE7BAF1000FC9D1B1
:10A340003CE700BF740D002010B54379032B94B097
:10A3500056D823F002038DF80630D0F80630CDF839
:10A3600007304389ADF80B3002798DF804200123C2
:10A370008DF80D30027B03888DF8052040F27122A4
:10A380005343049341884A430792847B417B41EACB
:10A390000421ADF82810047CC17B41EA0421ADF80A
:10A3A0002E10847C417C41EA0421ADF83410047DF8
:10A3B000C17C41EA0421ADF83A10417D847D41EA37
:10A3C0000421ADF84010C17D007E41EA0021ADF8C6
:10A3D000461000218DF84C100B488DF84E100B499B
:10A3E00000798DF84D00A2F6C4128A420AD8A3F66D
:10A3F000C4138B4206D801A8FFF7BAFD14B010BDF4
:10A400001220FBE73020F9E7740D00203C369C0059
:10A410000278034672B1427862B142881A2A09D999
:10A4200082881A2A06D9044A006810609B889380A3
:10A430000020704712207047AC110020024B0268C8
:10A440009A600020704700BFAC110020024B0268E8
:10A45000DA600020704700BFAC1100200378A3F140
:10A460000A02112A9DBF024A00201374122070476D
:10A47000AC1100200378FF2B15D14378FF2B12D1AC
:10A480008378FF2B0FD1C378FF2B0CD1037923F0F6
:10A49000E0021F2A07D113F0E00F04D0034A5B0942
:10A4A0001371002070471220704700BF740D002008
:10A4B00008B5052000F07CF80AF0B2FD014B024A15
:10A4C0001A6108BD740D0020FD9A020008B5FFF75F
:10A4D000C1F9FFF73BF9FFF7A9FBBDE808400146CA
:10A4E0000148FEF771BA00BF880D002008B5FEF7DD
:10A4F00015FAFFF7EBFF09F0BDFD074800F5847181
:10A50000FDF7F2F8002008F0F0F90AF087FDBDE849
:10A51000084000F08DBD00BF880D002010B5094C2B
:10A52000094904F5037009F0DCFB04F504700749E0
:10A5300009F0D7FB04F505700549BDE8104009F0A6
:10A54000D0BB00BF880D0020E0000020E800002004
:10A55000D800002038B5094C0D4600F061FDD4F854
:10A560000C02C4F8045109F0B4FBFFF753FB00F0F0
:10A57000B7FE012384F8183238BD00BF880D0020D3
:10A58000014B93F818027047880D002010B5074C56
:10A59000D4F8100209F09DFBD4F8140209F099FBDD
:10A5A000FFF710FB002384F8183210BD880D00203F
:10A5B000C2080549012300F0070003FA00F08B5C94
:10A5C00018438854704700BF18000020014BD3E99E
:10A5D0000001704718000020034B1868C0F30020EA
:10A5E000400040F0010070471800002008B503F05B
:10A5F00021FD084A002332F82310814205D302EBE3
:10A6000083039B78044A137008BD01330C2BF2D1ED
:10A610000023F7E78E7F0400A10F0020024B18787B
:10A6200000F00700704700BFA10F002010B544687C
:10A630002388A4F8983194F8683084F89711012B96
:10A6400006D0022B04D040F281210620FCF776F9D7
:10A6500084F89A3194F86930012B01D0022BF2D1A1
:10A6600084F89B310449022204F5C7700AF000F80F
:10A67000002384F8443110BD5B3D03004068084965
:10A680000388A0F88A3190F8603080F88C3190F817
:10A69000613080F88D3100F2811009F0E3BF00BF16
:10A6A000713D030030B505680446084651B115B147
:10A6B0002179994215D1FF21617123712260002314
:10A6C000637130BD002DFCD0FF23637123792160BD
:10A6D0000122054902FA03F3C1F8083560711046FA
:10A6E000EFE70020EDE700BF00F00140044B00223F
:10A6F00083F822204FF6FF729A84DA841A85704715
:10A70000A20F0020054B9A8C824201BF002283F8E1
:10A7100022204FF6FF729A84704700BFA20F0020DC
:10A72000014BD884704700BFA20F0020094A03469E
:10A73000908C4FF6FF71884206D192F822100129C1
:10A7400005D01A6001207047002018607047002073
:10A75000704700BFA20F0020064B93F82220012A69
:10A760001FBF0120DA8C83F822009A8408BF0020E2
:10A77000704700BFA20F0020014B1885704700BF33
:10A78000A20F0020064B0246198D988C884205D1F5
:10A7900093F8220018B11360012070470020704721
:10A7A000A20F0020094B998C1A8D914201D00020F4
:10A7B00070474FF6FF729A8493F82220002AF6D051
:10A7C000002283F822200120704700BFA20F002042
:10A7D000054B998C1A8D914203BF93F82200B0FA71
:10A7E00080F0400901207047A20F002050B90A4AAA
:10A7F0001346012003F8010B0868C2F801008A889B
:10A800009A807047012805D1034B0A689A608A88AC
:10A81000D8719A81704700BFCC0F002048B90A4B0D
:10A82000187880B1D3F80120B3F805300A608B8026
:10A830007047012806D1044BD87920B19A680A6084
:10A840009B89F4E700207047CC0F002020B9054B0E
:10A85000187800F00100704701280ABF014B002062
:10A86000D879F6E7CC0F0020F7B500228B888DF859
:10A870000600ADF8043008680C4B8DF80720019DE8
:10A880001C78014603F5AC73D0B2844201D808208D
:10A8900009E0D3E90076AE4208BF8F4203F1080316
:10A8A00002F10102F0D103B0F0BD00BFE00F0020C3
:10A8B00030B5094B01465C78002203F58173D0B2B4
:10A8C000844201D8082005E013F8015B8D4202F1B3
:10A8D0000102F4D130BD00BFE00F0020F0B5254DDE
:10A8E00095F8984189B0224605F29911684607F01B
:10A8F00011F82146684609F0DEFB0446B8B300EBC8
:10A900004001C9B202A8FCF79BF9601E95F8A1614D
:10A91000C0B2012495F8982105E0731CB3FBF2F155
:10A9200002FB1133DEB206F120030DEB030111F837
:10A93000203C002BF1D100EB400220326A4406EBB0
:10A9400046032B4412F8187C83F8A27112F8177C86
:10A9500012F8162C83F8A37183F8A42101F8204C77
:10A960000138AB19C0B2FF2883F89941D2D109B0A0
:10A97000F0BD00BFE00F002070B5064688B00C4661
:10A98000002A4FD02A4A92F8A131D01890F8991194
:10A9900021B94FF480712820FBF7D0FF03EB43016E
:10A9A0001144013391F8A251E57091F8A35191F847
:10A9B000A41161710021257180F8991192F8981104
:10A9C000B3FBF1F001FB103382F8A13192F8C231F0
:10A9D00023B9184902F5DD7009F047FE657905F0E5
:10A9E0003F0545F0400565710D220021684607F0DE
:10A9F00009F8E3788DF80F3023798DF80E3004AA2A
:10AA00000423694630468DF80D5006F019FD9DF877
:10AA10001F3023709DF81E3063709DF81D30A370A9
:10AA200008B070BD03216018FCF70AF9D6E700BF33
:10AA3000E00F0020DDA80200044B5A78824286BF56
:10AA40001B1893F842010020704700BFE00F002060
:10AA5000064B00224FF461711A8083F8C32183F8FA
:10AA6000C421A3F8C61183F8C2217047E00F00206B
:10AA7000014B83F8C4017047E00F002010B5144665
:10AA8000FFF7F2FE082803D1012000F0010010BDFD
:10AA9000FFF70EFF064B5A788242F5D904B12070B9
:10AAA000184490F83A31012BEED090F84A01ECE7C7
:10AAB000E00F0020014BB3F8C6017047E00F002003
:10AAC00030B50A4B5C7884420ED9184490F80201E4
:10AAD0002B3003EBC004A5790D7053F830001060E3
:10AAE000A3889380012030BD0020FCE7E00F002008
:10AAF0000246074810B590F8C34124B1417821B10E
:10AB0000023001F057FF204610BD0C46FBE700BFA6
:10AB1000E00F0020F8B5184C064648B3617804F5FC
:10AB2000A17009F0C8FA94F898510746294604F232
:10AB3000991009F0C0FA2D1AEDB2AF421AD80025CB
:10AB400006270FE0E21892F8422152B907FB0341B1
:10AB500004EB0313324601F5857103F18200FFF720
:10AB60000BFF01356278EBB29A42EBD80120F8BDB9
:10AB70000546E5E70020FAE7E00F0020F0B51B4EA0
:10AB80007378834289B007460D462CD9331893F861
:10AB9000424144BB0D222146684606F033FFEB7864
:10ABA0008DF80F302B798DF80E3006EB07106B798E
:10ABB0008DF80D3004AA04236946823006F040FC6B
:10ABC0002A789DF81F309A420AD16A789DF81E3083
:10ABD0009A4205D1AC789DF81D00231A5C425C4175
:10ABE000204609B0F0BD0020FBE700BFE00F0020C9
:10ABF000074B5A78824209D91A1892F842212AB989
:10AC0000062202FB003000F5857070470020704777
:10AC1000E00F002030B50024A0F85240B0F85640B4
:10AC200042F210754C43B4FBF2F4A0F85640541EA7
:10AC300005FB0343B3FBF2F3A0F85430094BB3FB1D
:10AC4000F2F30133A0F85A30B0F84C3005FB03445E
:10AC5000436CB4FBF2F459438464B1FBF2F24264F6
:10AC600030BD00BF005A620270B504460D4659BBA4
:10AC70004FF4247206F0C6FE012384F8A63049235F
:10AC800084F8F330042384F8F4306FF03B0384F845
:10AC9000F5306F2384F8F6306FF03F0384F8F73017
:10ACA0002B2384F8F230FE2384F82E317F2384F89E
:10ACB0009D30144BC4F88830202384F8F85084F871
:10ACC000F95084F8313270BD012912D182690E4BDE
:10ACD0001344B3FBF2F3C0F8C83040F6B833A0F821
:10ACE000CC30438C114604F18000BDE87040FFF782
:10ACF00091BF0229E7D1B0F85E32D0F858228169BD
:10AD0000F1E700BF00E0FCFF7FC3C901034B80F8FF
:10AD10006C101B680BB1008818477047F0000020CA
:10AD2000074B93F900301844142804DC10F17F0F0E
:10AD300003DB40B27047142070476FF07E0070470D
:10AD4000A811002007B57F230DF107008DF807300B
:10AD500002F0E2FC9DF9073068B10A4A507840429F
:10AD600043FA80F0142808DC10F17F0F07DB40B2B3
:10AD700003B05DF804FB1846FAE71420F8E76FF01B
:10AD80007E00F5E7A8110020024B00221A705A70CD
:10AD9000704700BFA8110020054B1B7833B9054B45
:10ADA0001A681B7902600371012070470020704708
:10ADB000AA11002020000020054BFF221A70054A2E
:10ADC000016811600179117100221A70704700BF8B
:10ADD000AA1100202000002007B5064B186800903B
:10ADE0001B798DF804306846FFF7E6FF03B05DF885
:10ADF00004FB00BFB48E04000346407848B1DB7802
:10AE00003A2B05D8034AD35C1B1A58425841704765
:10AE100001207047BE7F04003A2908B5C17003D8ED
:10AE2000064B5B5C437008BDFF2904D04FF4896179
:10AE30002A20FBF783FD0123F4E700BFBE7F040057
:10AE40002DE9F04385B0894602A91546984609F0D8
:10AE500061F90446002835D1039E2DB9012086F8FA
:10AE6000A50005B0BDE8F08337692946384607F0EC
:10AE70003FFB01460028F4D0144B5B88AB4223D340
:10AE800001AA384607F089FC019B1C809C7096F84B
:10AE9000A5300198002B0CBF4946022109F031FB77
:10AEA000019841462A46033006F034FD29463846CB
:10AEB00007F053FB18B97B212B20FBF73FFD86F8E9
:10AEC000A540CEE70120CCE72046CAE7AC11002020
:10AED000024B987DC04300F001007047AC11002088
:10AEE000034B987D80F00200C0F34000704700BF24
:10AEF000AC11002010B5094C14220021204606F0A8
:10AF000081FD1222002104F1140006F07BFD0123D3
:10AF10002373231DC4E9003310BD00BFC8110020F6
:10AF20007FB505460C4619B9F1211020FBF706FD47
:10AF300003888B8000234B724669304607F01FFC64
:10AF4000014608B9FA21F0E701AA304607F025FCCE
:10AF5000E08008B9FF21E8E7FB2802D940F201119F
:10AF6000E3E7019809F0D5FA012801D0022805D1BC
:10AF70002072206828B94FF48C71D6E740F2111185
:10AF8000D3E70199E288033106F0C4FC304607F0AC
:10AF90000CFC10B940F21D11C7E70021304607F044
:10AFA00040FB10B94FF49171BFE70B4BDA7D82B1D2
:10AFB0001A8B2888013A02A91A8309F0ABF810B15C
:10AFC00040F22B11B1E7039AB2F8B6300133A2F880
:10AFD000B63004B070BD00BFAC11002010B520B970
:10AFE00040F21B211020FBF7A9FC41600272EFF335
:10AFF000108472B6094B1A1D0260596819B1097A9A
:10B00000012908BF1A601A681060186004B962B696
:10B01000BDE8104093F8260006F03EBBC8110020A2
:10B02000024B83F82600FFF765BF00BFC811002060
:10B03000014B024A1A607047F400002021AF020061
:10B04000F7B54F4D4F4F06466B681B7A0C2B06D158
:10B05000FB7D23B13B8B13B9002003B0F0BD2B69FE
:10B060009BB11B7A8BB12C69002CF5D0237ADBB213
:10B0700005222272023B0A2B73D8DFE803F0173255
:10B08000477272507272727265006C68237A012B7B
:10B09000E2D0EFF3108372B66A6812686A6003B98F
:10B0A00062B6237A002BDAD02C61DFE7636823B91C
:10B0B00040F2A1111020FBF741FC20463146984791
:10B0C0000420EFF3108372B6227A052AD1B201D0A0
:10B0D00000294FD1002222722A61002B46D162B68C
:10B0E00044E0636813B94FF4D571E3E73146204675
:10B0F00098470346C3F30723012BADF80400C0B201
:10B1000032D0022BDDD100232B612FE0636813B90D
:10B110004FF4DA71CEE7204698470020D1E7636804
:10B120000BB9C621C6E70D2232701988A6F80310A4
:10B13000012200241869B2707271B471214607F0BF
:10B1400070FA2C61042088E7606810B940F2DF11C2
:10B15000B0E70D4B31461B68984700232B61022056
:10B160007BE74FF4F471A5E70323237200283FF433
:10B170006BAF72E7002B7FF467AF62B664E700BF86
:10B18000C8110020AC110020F40000200448037F07
:10B1900023B904490222143009F058BA704700BF9D
:10B1A000C81100203F4603001B234FF01B1283846D
:10B1B000038482618382C260038539B94FF4A4732A
:10B1C000034AC3844384C261C3820261704700BFE3
:10B1D0004801480103460846B3F85420B3F8481024
:10B1E0009142F0B528BF1146B3F84C40B3F8562051
:10B1F000B3F84450DF8FB3F84260D987A24228BF2A
:10B200002246B3F84640A3F84220944238BF144681
:10B210008D4238BF0D468F42A3F84450A3F84640F4
:10B220002DD1B61A18BF0126B3F84A50B3F85040D2
:10B23000B3F852E0B3F83CC0B3F84070A54228BF61
:10B240002546B3F84E409D87744528BF7446AC45EB
:10B25000A3F8404002D1A74200D196B11B88A0F8C4
:10B260000930A0F80B50A0F80D40A0F80F10A0F87E
:10B270001120BDE8F0400349022209F0F9B9012686
:10B28000D2E7F0BD834603000B8BA2F80B304B8B4B
:10B29000A2F80D308B8BA2F80F30CB8BA2F80900EF
:10B2A0000249A2F81130104609F0DCB9C346030088
:10B2B000094AD2E90203434083EAB01181EA4321FB
:10B2C0004FEAF343D360054B916058434FEAF06077
:10B2D00000EB8000704700BFF0110020BB79379E63
:10B2E00038B50A4C04F1080508212846FBF7A8FCEC
:10B2F000D4E902231343F7D0FFF7DAFF2060FFF70A
:10B30000D7FF236860600343F6D038BDF0110020FA
:10B31000174B184A9A60184ADA62184A1A61184A92
:10B320005A61184A9A61184A1A63184A5A62184AA6
:10B33000DA64184A9A64184A9A63184B184A9A6051
:10B34000184A1A62184A5A60184A1A60184A9A62C9
:10B35000184ADA62184ADA60184A9A61184A1A6377
:10B36000184A9A64184ADA64184A5A62704700BF49
:10B37000F8000020DF490300C54C03008F4C030098
:10B38000534C030009B60200BDB70200CDB602005F
:10B39000074E03002F4E030071B60200E4010020A7
:10B3A0000B4A0300AB4D0300294A0300794A03000E
:10B3B000234D0300E14C0300534D0300054D0300F2
:10B3C000AB4E0300674E03005D4E0300D14D0300FA
:10B3D000054B064A1A65064A5A65064B064A1A651F
:10B3E000064A5A65704700BFF8000020414B030031
:10B3F000C74A0300E4010020A14A0300F74B030001
:10B40000054B064A9A65064ADA65064B064A9A656E
:10B41000064A1A66704700BFF8000020B53E0300D8
:10B420008B3F0300E4010020F53D0300ED3F0300E6
:10B4300070B50C46252A00F2CC80DFE802F0133705
:10B44000404BCACA4A6264694A4A6DCACACACA78C3
:10B450004A4A929298CAA0CACACACACACACACACA18
:10B46000CAB3BCC3416840F2E240D1F85832B1F8E7
:10B470005022B2FBF0F22271D1F85422B3FBF0F368
:10B48000B2FBF0F2E3716271C3F30723C2F3072248
:10B49000A2712372B1F85C3263721B0AA372204658
:10B4A000B1F85E12BDE8704009F037B84368D3F8D0
:10B4B000401220460131BDE8704009F032B80278F0
:10B4C0004368012A02D193F8303101E093F8393111
:10B4D000237170BD4568204605F5217109F028F8F3
:10B4E00005F52371204609F02DF805F51971204660
:10B4F00009F02BF805F590712046BDE8704009F081
:10B500002BB84368DFE7BDE87040084600F028B973
:10B51000BDE8704000F036B90D230B7159234B7113
:10B5200000238B71FB23CB7111230B72D1E70378BE
:10B53000456873B995F830315BB195F82D11204607
:10B5400009F055F895F82C112046BDE8704009F037
:10B5500052B895F82B11204609F049F895F82A11B0
:10B56000F2E741682046BDE8704009F0EDB9436854
:10B5700093F846210A7193F847314B71A9E7456862
:10B5800095F84B0208F075FC0146204609F029F8B1
:10B5900095F84A0208F06DFC01462046BDE870406F
:10B5A00009F01DB80D4B1B68002B92D002462320DA
:10B5B000BDE870401847094B1B68002B89D0024634
:10B5C0002420F5E7054B1B68002B82D0024625207E
:10B5D000EEE740F2D6315120FBF7B0F9D00200205F
:10B5E0003A289ABF024B53F820000020704700BF52
:10B5F000F80000203A289ABF024B53F820000020A0
:10B60000704700BFE401002038B5436893F89E20DE
:10B610001B2A044625D193F8E2101D88002283F8E6
:10B62000E12083F8DC2083F88E2203F5FD7071B1F0
:10B630000D4983F8E22083F80322A3F80452022282
:10B6400009F004F86368002083F89E0038BD0122E9
:10B6500083F8031283F806220449A3F80452022255
:10B66000EEE70220F2E700BF3F4C0300274C030047
:10B6700038B5446800230D4694F89F20194604F11C
:10B68000800008F069FDE8B169680F4BAA680B40BB
:10B69000C4F8F23022F41E52C3F3076343F00803E8
:10B6A00022F01002120484F8F5300123120C00205D
:10B6B00084F8E0300423C4F8F620A4F8DE0084F80F
:10B6C0009F3038BD0120FCE72F4904F770B544686E
:10B6D000037894F89E2006460D4604F18000072169
:10B6E00008F03AFD98B369681B4BAA680B40C4F890
:10B6F000F23022F41E52C3F3076343F0080322F032
:10B70000100284F8F5301204002384F89E30120CE5
:10B71000C4F8F620726884F8DC3082F84B3194F873
:10B72000A42102F0FF06A2B92388A4F8A63184F868
:10B73000A5616B68C4F8A831AB680849C4F8AC319E
:10B74000022204F5CE7008F081FF304670BD01265C
:10B75000FBE71E46F9E700BF2F4904F7894D0300B8
:10B7600010B50446FEF732FF21F41E51044B21F0C0
:10B77000100109040340090C6360A16010BD00BF03
:10B780002F4904F737B50C464568FEF71FFF0A4BF3
:10B7900095F8F22021F41E5121F010010340090414
:10B7A0000093090C13408DF8003001916B4603CBD8
:10B7B0006060A16003B030BD2F4904F770B54468E4
:10B7C000037894F89E2004F180060D463046082147
:10B7D00008F0C2FC034690B394F8E3309A071DD4F6
:10B7E000284608F0C2FE84F8ED00B5F80530A4F84C
:10B7F000EE30B5F80730A4F8F03094F8E33043F0B9
:10B800000202DB0784F8E32002D494F84A312BB11A
:10B810001849022204F1E40008F02AFF94F8E350EA
:10B8200015F001051CD194F89F202B46294630467F
:10B8300008F092FC68B94F214020FBF77FF80146E1
:10B8400094F89F20304608F087FC0028C4D10120DE
:10B8500070BD012384F89F3084F8E030A4F8DE50F6
:10B8600094F89E300020012B04BF84F89E0084F8D9
:10B87000DC00EDE78D4E0300044B9B685843C3F595
:10B8800080534B4303EB2030704700BF0012002071
:10B8900070B54568044601F0FDFB85F88F00FFF7A1
:10B8A00051FA7F28014685F89D000ED0D5F8880012
:10B8B000FFF7E2FF054BC5F888001B7B2BB1044B5B
:10B8C00020461B68BDE87040184770BD001200207C
:10B8D000D8020020014B1B68184700BFD40200208B
:10B8E000F0B5204E054630780024147080B1431E18
:10B8F0007768DBB2181B01280BDC07EBC40057F894
:10B9000034604068884208BFAE4212D114700120F2
:10B91000F0BD1819461007EBC60E57F836C0DEF812
:10B920000460AC45C0F347008E412CBF034604467B
:10B93000E0E7B54271EB000002D214700020E7E7A7
:10B9400007EBC30057F833404068884208BFAC4259
:10B9500001D11370DBE7A542814128BF0133137089
:10B96000ECE700BF1012002010F0070208B503D06A
:10B9700063214820FAF7E2FF18B1034B19725860AF
:10B980001A70C80008BD00BF10120020014B002231
:10B990001A70704710120020014B187A704700BFD0
:10B9A000101200202DE9D34309F0A9FA0DF1070286
:10B9B00007460E46FFF794FF98B9114C2278237A78
:10B9C00093420ED0616813466FF0604E9DF80700F9
:10B9D000984209D301EBC003C3E90076013222701B
:10B9E000012002B0BDE8D08303EB0E0001EBC000E4
:10B9F000D0E90089013BC0E90289DBB2E6E700BF7C
:10BA00001012002037B509F07AFA0DF10702FFF79E
:10BA100067FF0446A0B10C4A9DF8070013785568EB
:10BA2000013BDBB213701A1AD2B2411CD20083421E
:10BA300038BF002205EBC10105EBC00005F024FF73
:10BA4000204603B030BD00BF10120020154B5B68CC
:10BA500093F8DC0028B1B3F8D810B3F8DA2091429B
:10BA60001ED293F9E0202AB1B3F8DE10B3F8DA2041
:10BA7000914214D2B3F8D420B3F8D61091420ED22A
:10BA8000B3F8D20093F8A23023B9052894BF002060
:10BA90000120704782428CBF0020012070470120A6
:10BAA000704700BF1C120020134B5B68182883F8F6
:10BAB0002E0116D8114AC240D2071CD4112806D133
:10BAC00093F8302152B10022A3F8D82070470728FC
:10BAD00011D009280FD0152805D10022A3F8DE20A7
